{
  "_format": "hh-sol-artifact-1",
  "contractName": "DonationPlatform",
  "sourceName": "contracts/DonationPlatform.sol",
  "abi": [
    {
      "inputs": [
        {
          "internalType": "address",
          "name": "_charityRegistryAddress",
          "type": "address"
        }
      ],
      "stateMutability": "nonpayable",
      "type": "constructor"
    },
    {
      "anonymous": false,
      "inputs": [
        {
          "indexed": true,
          "internalType": "uint256",
          "name": "donationId",
          "type": "uint256"
        },
        {
          "indexed": true,
          "internalType": "address",
          "name": "donor",
          "type": "address"
        },
        {
          "indexed": true,
          "internalType": "address",
          "name": "charity",
          "type": "address"
        },
        {
          "indexed": false,
          "internalType": "uint256",
          "name": "amount",
          "type": "uint256"
        },
        {
          "indexed": false,
          "internalType": "enum DonationPlatform.DonationType",
          "name": "donationType",
          "type": "uint8"
        },
        {
          "indexed": false,
          "internalType": "address",
          "name": "tokenAddress",
          "type": "address"
        },
        {
          "indexed": false,
          "internalType": "uint256",
          "name": "timestamp",
          "type": "uint256"
        }
      ],
      "name": "DonationReceived",
      "type": "event"
    },
    {
      "anonymous": false,
      "inputs": [
        {
          "indexed": true,
          "internalType": "uint256",
          "name": "requestId",
          "type": "uint256"
        },
        {
          "indexed": true,
          "internalType": "address",
          "name": "charity",
          "type": "address"
        },
        {
          "indexed": false,
          "internalType": "uint256",
          "name": "amount",
          "type": "uint256"
        },
        {
          "indexed": false,
          "internalType": "string",
          "name": "purpose",
          "type": "string"
        },
        {
          "indexed": false,
          "internalType": "uint256",
          "name": "requestDate",
          "type": "uint256"
        }
      ],
      "name": "FundRequestCreated",
      "type": "event"
    },
    {
      "anonymous": false,
      "inputs": [
        {
          "indexed": true,
          "internalType": "uint256",
          "name": "requestId",
          "type": "uint256"
        },
        {
          "indexed": false,
          "internalType": "enum DonationPlatform.FundRequestStatus",
          "name": "status",
          "type": "uint8"
        },
        {
          "indexed": false,
          "internalType": "uint256",
          "name": "timestamp",
          "type": "uint256"
        }
      ],
      "name": "FundRequestStatusUpdated",
      "type": "event"
    },
    {
      "anonymous": false,
      "inputs": [
        {
          "indexed": true,
          "internalType": "address",
          "name": "charity",
          "type": "address"
        },
        {
          "indexed": true,
          "internalType": "uint256",
          "name": "requestId",
          "type": "uint256"
        },
        {
          "indexed": false,
          "internalType": "uint256",
          "name": "reportDate",
          "type": "uint256"
        }
      ],
      "name": "FundUsageReportSubmitted",
      "type": "event"
    },
    {
      "anonymous": false,
      "inputs": [
        {
          "indexed": true,
          "internalType": "address",
          "name": "charity",
          "type": "address"
        },
        {
          "indexed": true,
          "internalType": "uint256",
          "name": "requestId",
          "type": "uint256"
        },
        {
          "indexed": false,
          "internalType": "uint256",
          "name": "amount",
          "type": "uint256"
        },
        {
          "indexed": false,
          "internalType": "uint256",
          "name": "timestamp",
          "type": "uint256"
        }
      ],
      "name": "FundsWithdrawn",
      "type": "event"
    },
    {
      "anonymous": false,
      "inputs": [
        {
          "indexed": true,
          "internalType": "address",
          "name": "previousOwner",
          "type": "address"
        },
        {
          "indexed": true,
          "internalType": "address",
          "name": "newOwner",
          "type": "address"
        }
      ],
      "name": "OwnershipTransferred",
      "type": "event"
    },
    {
      "inputs": [
        {
          "internalType": "address",
          "name": "",
          "type": "address"
        },
        {
          "internalType": "address",
          "name": "",
          "type": "address"
        }
      ],
      "name": "charityBalances",
      "outputs": [
        {
          "internalType": "uint256",
          "name": "",
          "type": "uint256"
        }
      ],
      "stateMutability": "view",
      "type": "function"
    },
    {
      "inputs": [],
      "name": "charityRegistry",
      "outputs": [
        {
          "internalType": "contract CharityRegistry",
          "name": "",
          "type": "address"
        }
      ],
      "stateMutability": "view",
      "type": "function"
    },
    {
      "inputs": [
        {
          "internalType": "uint256",
          "name": "_amount",
          "type": "uint256"
        },
        {
          "internalType": "string",
          "name": "_purpose",
          "type": "string"
        },
        {
          "internalType": "string",
          "name": "_description",
          "type": "string"
        }
      ],
      "name": "createFundRequest",
      "outputs": [],
      "stateMutability": "nonpayable",
      "type": "function"
    },
    {
      "inputs": [
        {
          "internalType": "address",
          "name": "_charityAddress",
          "type": "address"
        },
        {
          "internalType": "string",
          "name": "_message",
          "type": "string"
        }
      ],
      "name": "donateETH",
      "outputs": [],
      "stateMutability": "payable",
      "type": "function"
    },
    {
      "inputs": [
        {
          "internalType": "address",
          "name": "_charityAddress",
          "type": "address"
        },
        {
          "internalType": "address",
          "name": "_tokenAddress",
          "type": "address"
        },
        {
          "internalType": "uint256",
          "name": "_amount",
          "type": "uint256"
        },
        {
          "internalType": "string",
          "name": "_message",
          "type": "string"
        }
      ],
      "name": "donateToken",
      "outputs": [],
      "stateMutability": "nonpayable",
      "type": "function"
    },
    {
      "inputs": [
        {
          "internalType": "uint256",
          "name": "",
          "type": "uint256"
        }
      ],
      "name": "donations",
      "outputs": [
        {
          "internalType": "address",
          "name": "donor",
          "type": "address"
        },
        {
          "internalType": "address",
          "name": "charity",
          "type": "address"
        },
        {
          "internalType": "uint256",
          "name": "amount",
          "type": "uint256"
        },
        {
          "internalType": "uint256",
          "name": "timestamp",
          "type": "uint256"
        },
        {
          "internalType": "enum DonationPlatform.DonationType",
          "name": "donationType",
          "type": "uint8"
        },
        {
          "internalType": "address",
          "name": "tokenAddress",
          "type": "address"
        },
        {
          "internalType": "string",
          "name": "message",
          "type": "string"
        }
      ],
      "stateMutability": "view",
      "type": "function"
    },
    {
      "inputs": [
        {
          "internalType": "address",
          "name": "",
          "type": "address"
        }
      ],
      "name": "donorsCount",
      "outputs": [
        {
          "internalType": "uint256",
          "name": "",
          "type": "uint256"
        }
      ],
      "stateMutability": "view",
      "type": "function"
    },
    {
      "inputs": [
        {
          "internalType": "uint256",
          "name": "",
          "type": "uint256"
        }
      ],
      "name": "fundRequests",
      "outputs": [
        {
          "internalType": "address",
          "name": "charity",
          "type": "address"
        },
        {
          "internalType": "uint256",
          "name": "amount",
          "type": "uint256"
        },
        {
          "internalType": "string",
          "name": "purpose",
          "type": "string"
        },
        {
          "internalType": "string",
          "name": "description",
          "type": "string"
        },
        {
          "internalType": "enum DonationPlatform.FundRequestStatus",
          "name": "status",
          "type": "uint8"
        },
        {
          "internalType": "uint256",
          "name": "requestDate",
          "type": "uint256"
        },
        {
          "internalType": "uint256",
          "name": "completionDate",
          "type": "uint256"
        }
      ],
      "stateMutability": "view",
      "type": "function"
    },
    {
      "inputs": [
        {
          "internalType": "uint256",
          "name": "",
          "type": "uint256"
        },
        {
          "internalType": "uint256",
          "name": "",
          "type": "uint256"
        }
      ],
      "name": "fundUsageReports",
      "outputs": [
        {
          "internalType": "uint256",
          "name": "requestId",
          "type": "uint256"
        },
        {
          "internalType": "string",
          "name": "description",
          "type": "string"
        },
        {
          "internalType": "string",
          "name": "evidence",
          "type": "string"
        },
        {
          "internalType": "uint256",
          "name": "reportDate",
          "type": "uint256"
        }
      ],
      "stateMutability": "view",
      "type": "function"
    },
    {
      "inputs": [
        {
          "internalType": "uint256",
          "name": "_donationId",
          "type": "uint256"
        }
      ],
      "name": "getDonationDetails",
      "outputs": [
        {
          "internalType": "address",
          "name": "donor",
          "type": "address"
        },
        {
          "internalType": "address",
          "name": "charity",
          "type": "address"
        },
        {
          "internalType": "uint256",
          "name": "amount",
          "type": "uint256"
        },
        {
          "internalType": "uint256",
          "name": "timestamp",
          "type": "uint256"
        },
        {
          "internalType": "enum DonationPlatform.DonationType",
          "name": "donationType",
          "type": "uint8"
        },
        {
          "internalType": "address",
          "name": "tokenAddress",
          "type": "address"
        },
        {
          "internalType": "string",
          "name": "message",
          "type": "string"
        }
      ],
      "stateMutability": "view",
      "type": "function"
    },
    {
      "inputs": [],
      "name": "getDonationsCount",
      "outputs": [
        {
          "internalType": "uint256",
          "name": "count",
          "type": "uint256"
        }
      ],
      "stateMutability": "view",
      "type": "function"
    },
    {
      "inputs": [
        {
          "internalType": "uint256",
          "name": "_requestId",
          "type": "uint256"
        }
      ],
      "name": "getFundRequestDetails",
      "outputs": [
        {
          "internalType": "address",
          "name": "charityAddress",
          "type": "address"
        },
        {
          "internalType": "uint256",
          "name": "amount",
          "type": "uint256"
        },
        {
          "internalType": "string",
          "name": "purpose",
          "type": "string"
        },
        {
          "internalType": "string",
          "name": "description",
          "type": "string"
        },
        {
          "internalType": "enum DonationPlatform.FundRequestStatus",
          "name": "status",
          "type": "uint8"
        },
        {
          "internalType": "uint256",
          "name": "requestDate",
          "type": "uint256"
        },
        {
          "internalType": "uint256",
          "name": "completionDate",
          "type": "uint256"
        }
      ],
      "stateMutability": "view",
      "type": "function"
    },
    {
      "inputs": [],
      "name": "getFundRequestsCount",
      "outputs": [
        {
          "internalType": "uint256",
          "name": "count",
          "type": "uint256"
        }
      ],
      "stateMutability": "view",
      "type": "function"
    },
    {
      "inputs": [
        {
          "internalType": "uint256",
          "name": "_requestId",
          "type": "uint256"
        },
        {
          "internalType": "uint256",
          "name": "_reportIndex",
          "type": "uint256"
        }
      ],
      "name": "getFundUsageReportDetails",
      "outputs": [
        {
          "internalType": "string",
          "name": "description",
          "type": "string"
        },
        {
          "internalType": "string",
          "name": "evidence",
          "type": "string"
        },
        {
          "internalType": "uint256",
          "name": "reportDate",
          "type": "uint256"
        }
      ],
      "stateMutability": "view",
      "type": "function"
    },
    {
      "inputs": [
        {
          "internalType": "uint256",
          "name": "_requestId",
          "type": "uint256"
        }
      ],
      "name": "getFundUsageReportsCount",
      "outputs": [
        {
          "internalType": "uint256",
          "name": "reportCount",
          "type": "uint256"
        }
      ],
      "stateMutability": "view",
      "type": "function"
    },
    {
      "inputs": [],
      "name": "owner",
      "outputs": [
        {
          "internalType": "address",
          "name": "",
          "type": "address"
        }
      ],
      "stateMutability": "view",
      "type": "function"
    },
    {
      "inputs": [],
      "name": "renounceOwnership",
      "outputs": [],
      "stateMutability": "nonpayable",
      "type": "function"
    },
    {
      "inputs": [
        {
          "internalType": "uint256",
          "name": "_requestId",
          "type": "uint256"
        },
        {
          "internalType": "string",
          "name": "_description",
          "type": "string"
        },
        {
          "internalType": "string",
          "name": "_evidence",
          "type": "string"
        }
      ],
      "name": "submitFundUsageReport",
      "outputs": [],
      "stateMutability": "nonpayable",
      "type": "function"
    },
    {
      "inputs": [
        {
          "internalType": "address",
          "name": "",
          "type": "address"
        }
      ],
      "name": "totalDonated",
      "outputs": [
        {
          "internalType": "uint256",
          "name": "",
          "type": "uint256"
        }
      ],
      "stateMutability": "view",
      "type": "function"
    },
    {
      "inputs": [
        {
          "internalType": "address",
          "name": "newOwner",
          "type": "address"
        }
      ],
      "name": "transferOwnership",
      "outputs": [],
      "stateMutability": "nonpayable",
      "type": "function"
    },
    {
      "inputs": [
        {
          "internalType": "uint256",
          "name": "_requestId",
          "type": "uint256"
        },
        {
          "internalType": "enum DonationPlatform.FundRequestStatus",
          "name": "_newStatus",
          "type": "uint8"
        }
      ],
      "name": "updateFundRequestStatus",
      "outputs": [],
      "stateMutability": "nonpayable",
      "type": "function"
    },
    {
      "inputs": [
        {
          "internalType": "uint256",
          "name": "_requestId",
          "type": "uint256"
        },
        {
          "internalType": "address",
          "name": "_tokenAddress",
          "type": "address"
        }
      ],
      "name": "withdrawFunds",
      "outputs": [],
      "stateMutability": "nonpayable",
      "type": "function"
    }
  ],
  "bytecode": "0x60806040523480156200001157600080fd5b50604051620029593803806200295983398101604081905262000034916200011b565b6200003f33620000cb565b600180556001600160a01b0381166200009e5760405162461bcd60e51b815260206004820181905260248201527f496e76616c696420636861726974792072656769737472792061646472657373604482015260640160405180910390fd5b600280546001600160a01b0319166001600160a01b038316179055620000c433620000cb565b506200014d565b600080546001600160a01b038381166001600160a01b0319831681178455604051919092169283917f8be0079c531659141344cd1fd0a4f28419497f9722a3daafe3b4186f6b6457e09190a35050565b6000602082840312156200012e57600080fd5b81516001600160a01b03811681146200014657600080fd5b9392505050565b6127fc806200015d6000396000f3fe6080604052600436106101355760003560e01c806388fcc75d116100ab578063c7fc8fa81161006f578063c7fc8fa8146103aa578063c93527d8146103bf578063e1c6a16b146103d4578063eb564d3514610404578063f2fde38b14610437578063f8626af81461045757600080fd5b806388fcc75d146102eb5780638da5cb5b1461030b578063ae56638a1461033d578063b573f2eb1461035d578063b69e54521461038a57600080fd5b8063715018a6116100fd578063715018a61461020b578063744bfe61146102205780637de18d6d1461024057806380ee37fa1461027857806381ea0e35146102ab578063851aff40146102cb57600080fd5b80630f3a1d471461013a57806326309f641461017a5780634d068f0c146101a95780634ef88fca146101cb57806353b5bd5f146101de575b600080fd5b34801561014657600080fd5b506101676101553660046120aa565b60056020526000908152604090205481565b6040519081526020015b60405180910390f35b34801561018657600080fd5b5061019a6101953660046120cc565b610477565b60405161017193929190612134565b3480156101b557600080fd5b506101c96101c436600461216a565b61068d565b005b6101c96101d9366004612241565b6107a6565b3480156101ea57600080fd5b506101676101f93660046120aa565b60046020526000908152604090205481565b34801561021757600080fd5b506101c9610b1d565b34801561022c57600080fd5b506101c961023b36600461228f565b610b31565b34801561024c57600080fd5b5061016761025b3660046122bb565b600360209081526000928352604080842090915290825290205481565b34801561028457600080fd5b506102986102933660046122e5565b610eb6565b6040516101719796959493929190612328565b3480156102b757600080fd5b506101c96102c6366004612386565b611025565b3480156102d757600080fd5b506101c96102e63660046123ee565b611487565b3480156102f757600080fd5b506102986103063660046122e5565b6116d5565b34801561031757600080fd5b506000546001600160a01b03165b6040516001600160a01b039091168152602001610171565b34801561034957600080fd5b50600254610325906001600160a01b031681565b34801561036957600080fd5b506101676103783660046122e5565b60009081526008602052604090205490565b34801561039657600080fd5b506101c96103a53660046123ee565b611910565b3480156103b657600080fd5b50600754610167565b3480156103cb57600080fd5b50600654610167565b3480156103e057600080fd5b506103f46103ef3660046120cc565b611ae9565b604051610171949392919061245b565b34801561041057600080fd5b5061042461041f3660046122e5565b611c46565b60405161017197969594939291906124a8565b34801561044357600080fd5b506101c96104523660046120aa565b611e26565b34801561046357600080fd5b506104246104723660046122e5565b611e9f565b606080600060078054905085106104a95760405162461bcd60e51b81526004016104a090612505565b60405180910390fd5b60008581526008602052604090205484106104fd5760405162461bcd60e51b8152602060048201526014602482015273092dcecc2d8d2c840e4cae0dee4e840d2dcc8caf60631b60448201526064016104a0565b600085815260086020526040812080548690811061051d5761051d612531565b90600052602060002090600402016040518060800160405290816000820154815260200160018201805461055090612547565b80601f016020809104026020016040519081016040528092919081815260200182805461057c90612547565b80156105c95780601f1061059e576101008083540402835291602001916105c9565b820191906000526020600020905b8154815290600101906020018083116105ac57829003601f168201915b505050505081526020016002820180546105e290612547565b80601f016020809104026020016040519081016040528092919081815260200182805461060e90612547565b801561065b5780601f106106305761010080835404028352916020019161065b565b820191906000526020600020905b81548152906001019060200180831161063e57829003601f168201915b505050505081526020016003820154815250509050806020015181604001518260600151935093509350509250925092565b610695611f8b565b60075482106106b65760405162461bcd60e51b81526004016104a090612505565b60038160038111156106ca576106ca6122fe565b036107175760405162461bcd60e51b815260206004820181905260248201527f55736520776974686472617746756e647320666f7220636f6d706c6574696f6e60448201526064016104a0565b60006007838154811061072c5761072c612531565b90600052602060002090600702019050818160040160006101000a81548160ff02191690836003811115610762576107626122fe565b0217905550827ff7fd50aadfb95a0b77a4bb44d65b7053c6719c0ec26c736eeb7fc45a736de0078342604051610799929190612581565b60405180910390a2505050565b6107ae611fe5565b600034116107ce5760405162461bcd60e51b81526004016104a09061259c565b600254604051639caf253f60e01b81526001600160a01b03848116600483015290911690639caf253f90602401602060405180830381865afa158015610818573d6000803e3d6000fd5b505050506040513d601f19601f8201168201806040525081019061083c91906125e2565b6108825760405162461bcd60e51b815260206004820152601760248201527610da185c9a5d1e481a5cc81b9bdd08185c1c1c9bdd9959604a1b60448201526064016104a0565b6001600160a01b0382166000908152600360209081526040808320838052909152812080543492906108b590849061261a565b90915550503360009081526005602052604081205490036108fa576001600160a01b03821660009081526004602052604081208054916108f483612633565b91905055505b336000908152600560205260408120805434929061091990849061261a565b9091555050600680546040805160e0810182523381526001600160a01b038681166020830190815234938301938452426060840190815260006080850181815260a0860182905260c086018a905260018089018a559189905285519888027ff652222313e28459528d920b65115c16c04f3efc82aaedc97be59f3f377c0d3f810180549a87166001600160a01b03199b8c1617815594517ff652222313e28459528d920b65115c16c04f3efc82aaedc97be59f3f377c0d4082018054919097169a169990991790945594517ff652222313e28459528d920b65115c16c04f3efc82aaedc97be59f3f377c0d41880155517ff652222313e28459528d920b65115c16c04f3efc82aaedc97be59f3f377c0d4287015590517ff652222313e28459528d920b65115c16c04f3efc82aaedc97be59f3f377c0d439095018054949592949193909160ff1916908381811115610a7357610a736122fe565b021790555060a08201516004820180546001600160a01b0390921661010002610100600160a81b031990921691909117905560c08201516005820190610ab9908261269b565b505050826001600160a01b0316336001600160a01b0316827f336f977d5c121e1410f22064b0ba9c3831c30a9b73d2c870ef67eba7e6c03e093460008042604051610b07949392919061275b565b60405180910390a450610b1960018055565b5050565b610b25611f8b565b610b2f600061203e565b565b610b39611fe5565b6007548210610b5a5760405162461bcd60e51b81526004016104a090612505565b600060078381548110610b6f57610b6f612531565b6000918252602090912060079091020180549091506001600160a01b03163314610bec5760405162461bcd60e51b815260206004820152602860248201527f4f6e6c79207468652072657175657374696e6720636861726974792063616e20604482015267776974686472617760c01b60648201526084016104a0565b6001600482015460ff166003811115610c0757610c076122fe565b14610c545760405162461bcd60e51b815260206004820152601760248201527f52657175657374206973206e6f7420617070726f76656400000000000000000060448201526064016104a0565b60018101543360009081526003602090815260408083206001600160a01b0387168452909152902054811115610cc35760405162461bcd60e51b8152602060048201526014602482015273496e73756666696369656e742062616c616e636560601b60448201526064016104a0565b3360009081526003602090815260408083206001600160a01b038716845290915281208054839290610cf690849061278a565b90915550506001600160a01b038316610d9d57604051600090339083908381818185875af1925050503d8060008114610d4b576040519150601f19603f3d011682016040523d82523d6000602084013e610d50565b606091505b5050905080610d975760405162461bcd60e51b8152602060048201526013602482015272115512081d1c985b9cd9995c8819985a5b1959606a1b60448201526064016104a0565b50610e56565b60405163a9059cbb60e01b81523360048201526024810182905283906001600160a01b0382169063a9059cbb906044016020604051808303816000875af1158015610dec573d6000803e3d6000fd5b505050506040513d601f19601f82011682018060405250810190610e1091906125e2565b610e545760405162461bcd60e51b8152602060048201526015602482015274151bdad95b881d1c985b9cd9995c8819985a5b1959605a1b60448201526064016104a0565b505b60048201805460ff191660031790554260068301819055604080518381526020810192909252859133917f3521a2719ff4d72c7248c054a43d4a68f2057d685ec0bb654262bbc2ffc3a41e910160405180910390a35050610b1960018055565b60078181548110610ec657600080fd5b60009182526020909120600790910201805460018201546002830180546001600160a01b039093169450909291610efc90612547565b80601f0160208091040260200160405190810160405280929190818152602001828054610f2890612547565b8015610f755780601f10610f4a57610100808354040283529160200191610f75565b820191906000526020600020905b815481529060010190602001808311610f5857829003601f168201915b505050505090806003018054610f8a90612547565b80601f0160208091040260200160405190810160405280929190818152602001828054610fb690612547565b80156110035780601f10610fd857610100808354040283529160200191611003565b820191906000526020600020905b815481529060010190602001808311610fe657829003601f168201915b5050505060048301546005840154600690940154929360ff9091169290915087565b61102d611fe5565b6000821161104d5760405162461bcd60e51b81526004016104a09061259c565b6001600160a01b03831661109b5760405162461bcd60e51b8152602060048201526015602482015274496e76616c696420746f6b656e206164647265737360581b60448201526064016104a0565b600254604051639caf253f60e01b81526001600160a01b03868116600483015290911690639caf253f90602401602060405180830381865afa1580156110e5573d6000803e3d6000fd5b505050506040513d601f19601f8201168201806040525081019061110991906125e2565b61114f5760405162461bcd60e51b815260206004820152601760248201527610da185c9a5d1e481a5cc81b9bdd08185c1c1c9bdd9959604a1b60448201526064016104a0565b6040516323b872dd60e01b81523360048201523060248201526044810183905283906001600160a01b038216906323b872dd906064016020604051808303816000875af11580156111a4573d6000803e3d6000fd5b505050506040513d601f19601f820116820180604052508101906111c891906125e2565b61120c5760405162461bcd60e51b8152602060048201526015602482015274151bdad95b881d1c985b9cd9995c8819985a5b1959605a1b60448201526064016104a0565b6001600160a01b0380861660009081526003602090815260408083209388168352929052908120805485929061124390849061261a565b9091555050336000908152600560205260408120549003611288576001600160a01b038516600090815260046020526040812080549161128283612633565b91905055505b600680546040805160e0810182523381526001600160a01b038981166020830190815292820188815242606084019081526001608085018181528c851660a087015260c086018b90528188018955600089905285517ff652222313e28459528d920b65115c16c04f3efc82aaedc97be59f3f377c0d3f998902998a0180549187166001600160a01b031992831617815597517ff652222313e28459528d920b65115c16c04f3efc82aaedc97be59f3f377c0d408b0180549190971691161790945591517ff652222313e28459528d920b65115c16c04f3efc82aaedc97be59f3f377c0d41880155517ff652222313e28459528d920b65115c16c04f3efc82aaedc97be59f3f377c0d4287015590517ff652222313e28459528d920b65115c16c04f3efc82aaedc97be59f3f377c0d43909501805494959294909160ff199091169083818111156113da576113da6122fe565b021790555060a08201516004820180546001600160a01b0390921661010002610100600160a81b031990921691909117905560c08201516005820190611420908261269b565b505050856001600160a01b0316336001600160a01b0316827f336f977d5c121e1410f22064b0ba9c3831c30a9b73d2c870ef67eba7e6c03e098760018a4260405161146e949392919061275b565b60405180910390a4505061148160018055565b50505050565b600254604051639caf253f60e01b81523360048201526001600160a01b0390911690639caf253f90602401602060405180830381865afa1580156114cf573d6000803e3d6000fd5b505050506040513d601f19601f820116820180604052508101906114f391906125e2565b6115515760405162461bcd60e51b815260206004820152602960248201527f4f6e6c7920617070726f766564206368617269746965732063616e20726571756044820152686573742066756e647360b81b60648201526084016104a0565b600780546040805160e08101825233815260208101878152918101868152606082018690526000608083018190524260a084015260c0830181905260018501865585905281517fa66cc928b5edb82af9bd49922954155ab7b0942694bea4ce44661d9a8736c68895850295860180546001600160a01b0319166001600160a01b0390921691909117815592517fa66cc928b5edb82af9bd49922954155ab7b0942694bea4ce44661d9a8736c68986015551929390927fa66cc928b5edb82af9bd49922954155ab7b0942694bea4ce44661d9a8736c68a90910190611635908261269b565b506060820151600382019061164a908261269b565b50608082015160048201805460ff1916600183600381111561166e5761166e6122fe565b021790555060a0820151816005015560c082015181600601555050336001600160a01b0316817f7d00c194747e3df3ee4fb33a47089c84fd9c96c01bc2d24f9acd1243f37319238686426040516116c79392919061279d565b60405180910390a350505050565b600080606080600080600060078054905088106117045760405162461bcd60e51b81526004016104a090612505565b60006007898154811061171957611719612531565b90600052602060002090600702016040518060e00160405290816000820160009054906101000a90046001600160a01b03166001600160a01b03166001600160a01b031681526020016001820154815260200160028201805461177b90612547565b80601f01602080910402602001604051908101604052809291908181526020018280546117a790612547565b80156117f45780601f106117c9576101008083540402835291602001916117f4565b820191906000526020600020905b8154815290600101906020018083116117d757829003601f168201915b5050505050815260200160038201805461180d90612547565b80601f016020809104026020016040519081016040528092919081815260200182805461183990612547565b80156118865780601f1061185b57610100808354040283529160200191611886565b820191906000526020600020905b81548152906001019060200180831161186957829003601f168201915b5050509183525050600482015460209091019060ff1660038111156118ad576118ad6122fe565b60038111156118be576118be6122fe565b81526005820154602080830191909152600690920154604091820152825191830151908301516060840151608085015160a086015160c090960151949f939e50919c509a509850919650945092505050565b60075483106119315760405162461bcd60e51b81526004016104a090612505565b60006007848154811061194657611946612531565b6000918252602090912060079091020180549091506001600160a01b031633146119ca5760405162461bcd60e51b815260206004820152602f60248201527f4f6e6c79207468652072657175657374696e6720636861726974792063616e2060448201526e1cdd589b5a5d0818481c995c1bdc9d608a1b60648201526084016104a0565b6003600482015460ff1660038111156119e5576119e56122fe565b14611a325760405162461bcd60e51b815260206004820152601860248201527f52657175657374206973206e6f7420636f6d706c65746564000000000000000060448201526064016104a0565b60008481526008602090815260408083208151608081018352888152808401888152928101879052426060820152815460018181018455928652939094208451600490940201928355905190820190611a8b908261269b565b5060408201516002820190611aa0908261269b565b5060608201518160030155505083336001600160a01b03167f0f837ac8d43df15d4bda1a8a2fefb35aa5c7110b48efff38b0879a84b8de0adb426040516116c791815260200190565b60086020528160005260406000208181548110611b0557600080fd5b906000526020600020906004020160009150915050806000015490806001018054611b2f90612547565b80601f0160208091040260200160405190810160405280929190818152602001828054611b5b90612547565b8015611ba85780601f10611b7d57610100808354040283529160200191611ba8565b820191906000526020600020905b815481529060010190602001808311611b8b57829003601f168201915b505050505090806002018054611bbd90612547565b80601f0160208091040260200160405190810160405280929190818152602001828054611be990612547565b8015611c365780601f10611c0b57610100808354040283529160200191611c36565b820191906000526020600020905b815481529060010190602001808311611c1957829003601f168201915b5050505050908060030154905084565b60008060008060008060606006805490508810611c9b5760405162461bcd60e51b8152602060048201526013602482015272125b9d985b1a5908191bdb985d1a5bdb881251606a1b60448201526064016104a0565b600060068981548110611cb057611cb0612531565b60009182526020918290206040805160e081018252600690930290910180546001600160a01b0390811684526001808301549091169484019490945260028101549183019190915260038101546060830152600481015491929091608084019160ff90911690811115611d2557611d256122fe565b6001811115611d3657611d366122fe565b8152600482015461010090046001600160a01b03166020820152600582018054604090920191611d6590612547565b80601f0160208091040260200160405190810160405280929190818152602001828054611d9190612547565b8015611dde5780601f10611db357610100808354040283529160200191611dde565b820191906000526020600020905b815481529060010190602001808311611dc157829003601f168201915b5050505050815250509050806000015181602001518260400151836060015184608001518560a001518660c00151975097509750975097509750975050919395979092949650565b611e2e611f8b565b6001600160a01b038116611e935760405162461bcd60e51b815260206004820152602660248201527f4f776e61626c653a206e6577206f776e657220697320746865207a65726f206160448201526564647265737360d01b60648201526084016104a0565b611e9c8161203e565b50565b60068181548110611eaf57600080fd5b60009182526020909120600690910201805460018201546002830154600384015460048501546005860180546001600160a01b039687169850948616969395929460ff83169461010090930490931692611f0890612547565b80601f0160208091040260200160405190810160405280929190818152602001828054611f3490612547565b8015611f815780601f10611f5657610100808354040283529160200191611f81565b820191906000526020600020905b815481529060010190602001808311611f6457829003601f168201915b5050505050905087565b6000546001600160a01b03163314610b2f5760405162461bcd60e51b815260206004820181905260248201527f4f776e61626c653a2063616c6c6572206973206e6f7420746865206f776e657260448201526064016104a0565b6002600154036120375760405162461bcd60e51b815260206004820152601f60248201527f5265656e7472616e637947756172643a207265656e7472616e742063616c6c0060448201526064016104a0565b6002600155565b600080546001600160a01b038381166001600160a01b0319831681178455604051919092169283917f8be0079c531659141344cd1fd0a4f28419497f9722a3daafe3b4186f6b6457e09190a35050565b80356001600160a01b03811681146120a557600080fd5b919050565b6000602082840312156120bc57600080fd5b6120c58261208e565b9392505050565b600080604083850312156120df57600080fd5b50508035926020909101359150565b6000815180845260005b81811015612114576020818501810151868301820152016120f8565b506000602082860101526020601f19601f83011685010191505092915050565b60608152600061214760608301866120ee565b828103602084015261215981866120ee565b915050826040830152949350505050565b6000806040838503121561217d57600080fd5b8235915060208301356004811061219357600080fd5b809150509250929050565b634e487b7160e01b600052604160045260246000fd5b600082601f8301126121c557600080fd5b813567ffffffffffffffff808211156121e0576121e061219e565b604051601f8301601f19908116603f011681019082821181831017156122085761220861219e565b8160405283815286602085880101111561222157600080fd5b836020870160208301376000602085830101528094505050505092915050565b6000806040838503121561225457600080fd5b61225d8361208e565b9150602083013567ffffffffffffffff81111561227957600080fd5b612285858286016121b4565b9150509250929050565b600080604083850312156122a257600080fd5b823591506122b26020840161208e565b90509250929050565b600080604083850312156122ce57600080fd5b6122d78361208e565b91506122b26020840161208e565b6000602082840312156122f757600080fd5b5035919050565b634e487b7160e01b600052602160045260246000fd5b60048110612324576123246122fe565b9052565b60018060a01b038816815286602082015260e06040820152600061234f60e08301886120ee565b828103606084015261236181886120ee565b9150506123716080830186612314565b60a082019390935260c0015295945050505050565b6000806000806080858703121561239c57600080fd5b6123a58561208e565b93506123b36020860161208e565b925060408501359150606085013567ffffffffffffffff8111156123d657600080fd5b6123e2878288016121b4565b91505092959194509250565b60008060006060848603121561240357600080fd5b83359250602084013567ffffffffffffffff8082111561242257600080fd5b61242e878388016121b4565b9350604086013591508082111561244457600080fd5b50612451868287016121b4565b9150509250925092565b84815260806020820152600061247460808301866120ee565b828103604084015261248681866120ee565b91505082606083015295945050505050565b60028110612324576123246122fe565b6001600160a01b038881168252878116602083015260408201879052606082018690526000906124db6080840187612498565b80851660a08401525060e060c08301526124f860e08301846120ee565b9998505050505050505050565b602080825260129082015271125b9d985b1a59081c995c5d595cdd08125160721b604082015260600190565b634e487b7160e01b600052603260045260246000fd5b600181811c9082168061255b57607f821691505b60208210810361257b57634e487b7160e01b600052602260045260246000fd5b50919050565b6040810161258f8285612314565b8260208301529392505050565b60208082526026908201527f446f6e6174696f6e20616d6f756e74206d75737420626520677265617465722060408201526507468616e20360d41b606082015260800190565b6000602082840312156125f457600080fd5b815180151581146120c557600080fd5b634e487b7160e01b600052601160045260246000fd5b8082018082111561262d5761262d612604565b92915050565b60006001820161264557612645612604565b5060010190565b601f82111561269657600081815260208120601f850160051c810160208610156126735750805b601f850160051c820191505b818110156126925782815560010161267f565b5050505b505050565b815167ffffffffffffffff8111156126b5576126b561219e565b6126c9816126c38454612547565b8461264c565b602080601f8311600181146126fe57600084156126e65750858301515b600019600386901b1c1916600185901b178555612692565b600085815260208120601f198616915b8281101561272d5788860151825594840194600190910190840161270e565b508582101561274b5787850151600019600388901b60f8161c191681555b5050505050600190811b01905550565b8481526080810161276f6020830186612498565b6001600160a01b039390931660408201526060015292915050565b8181038181111561262d5761262d612604565b8381526060602082015260006127b660608301856120ee565b905082604083015294935050505056fea2646970667358221220423643b27345a6bb7f3e4762869e4943b2aa493fcbe91272d5a30a023cd9c94564736f6c63430008110033",
  "linkReferences": {},
  "deployedLinkReferences": {}
}