{
  "_format": "hh-sol-artifact-1",
  "contractName": "CharityRegistry",
  "sourceName": "contracts/CharityRegistry.sol",
  "abi": [
    {
      "anonymous": false,
      "inputs": [
        {
          "indexed": true,
          "internalType": "address",
          "name": "charityAddress",
          "type": "address"
        }
      ],
      "name": "CharityInfoUpdated",
      "type": "event"
    },
    {
      "anonymous": false,
      "inputs": [
        {
          "indexed": true,
          "internalType": "address",
          "name": "charityAddress",
          "type": "address"
        },
        {
          "indexed": false,
          "internalType": "string",
          "name": "name",
          "type": "string"
        },
        {
          "indexed": false,
          "internalType": "uint256",
          "name": "registrationDate",
          "type": "uint256"
        }
      ],
      "name": "CharityRegistered",
      "type": "event"
    },
    {
      "anonymous": false,
      "inputs": [
        {
          "indexed": true,
          "internalType": "address",
          "name": "charityAddress",
          "type": "address"
        },
        {
          "indexed": false,
          "internalType": "enum CharityRegistry.CharityStatus",
          "name": "newStatus",
          "type": "uint8"
        }
      ],
      "name": "CharityStatusChanged",
      "type": "event"
    },
    {
      "anonymous": false,
      "inputs": [
        {
          "indexed": true,
          "internalType": "address",
          "name": "previousOwner",
          "type": "address"
        },
        {
          "indexed": true,
          "internalType": "address",
          "name": "newOwner",
          "type": "address"
        }
      ],
      "name": "OwnershipTransferred",
      "type": "event"
    },
    {
      "inputs": [
        {
          "internalType": "address",
          "name": "",
          "type": "address"
        }
      ],
      "name": "charities",
      "outputs": [
        {
          "internalType": "string",
          "name": "name",
          "type": "string"
        },
        {
          "internalType": "string",
          "name": "description",
          "type": "string"
        },
        {
          "internalType": "address payable",
          "name": "walletAddress",
          "type": "address"
        },
        {
          "internalType": "enum CharityRegistry.CharityStatus",
          "name": "status",
          "type": "uint8"
        },
        {
          "internalType": "uint256",
          "name": "registrationDate",
          "type": "uint256"
        },
        {
          "internalType": "string",
          "name": "website",
          "type": "string"
        },
        {
          "internalType": "string",
          "name": "contactInformation",
          "type": "string"
        }
      ],
      "stateMutability": "view",
      "type": "function"
    },
    {
      "inputs": [
        {
          "internalType": "uint256",
          "name": "",
          "type": "uint256"
        }
      ],
      "name": "charityAddresses",
      "outputs": [
        {
          "internalType": "address",
          "name": "",
          "type": "address"
        }
      ],
      "stateMutability": "view",
      "type": "function"
    },
    {
      "inputs": [],
      "name": "getAllCharities",
      "outputs": [
        {
          "internalType": "address[]",
          "name": "charityList",
          "type": "address[]"
        }
      ],
      "stateMutability": "view",
      "type": "function"
    },
    {
      "inputs": [
        {
          "internalType": "address",
          "name": "_charityAddress",
          "type": "address"
        }
      ],
      "name": "getCharityDetails",
      "outputs": [
        {
          "internalType": "string",
          "name": "name",
          "type": "string"
        },
        {
          "internalType": "string",
          "name": "description",
          "type": "string"
        },
        {
          "internalType": "address",
          "name": "walletAddress",
          "type": "address"
        },
        {
          "internalType": "enum CharityRegistry.CharityStatus",
          "name": "status",
          "type": "uint8"
        },
        {
          "internalType": "uint256",
          "name": "registrationDate",
          "type": "uint256"
        },
        {
          "internalType": "string",
          "name": "website",
          "type": "string"
        },
        {
          "internalType": "string",
          "name": "contactInformation",
          "type": "string"
        }
      ],
      "stateMutability": "view",
      "type": "function"
    },
    {
      "inputs": [
        {
          "internalType": "address",
          "name": "_charityAddress",
          "type": "address"
        }
      ],
      "name": "isCharityApproved",
      "outputs": [
        {
          "internalType": "bool",
          "name": "isApproved",
          "type": "bool"
        }
      ],
      "stateMutability": "view",
      "type": "function"
    },
    {
      "inputs": [],
      "name": "owner",
      "outputs": [
        {
          "internalType": "address",
          "name": "",
          "type": "address"
        }
      ],
      "stateMutability": "view",
      "type": "function"
    },
    {
      "inputs": [
        {
          "internalType": "string",
          "name": "_name",
          "type": "string"
        },
        {
          "internalType": "string",
          "name": "_description",
          "type": "string"
        },
        {
          "internalType": "address payable",
          "name": "_walletAddress",
          "type": "address"
        },
        {
          "internalType": "string",
          "name": "_website",
          "type": "string"
        },
        {
          "internalType": "string",
          "name": "_contactInformation",
          "type": "string"
        }
      ],
      "name": "registerCharity",
      "outputs": [],
      "stateMutability": "nonpayable",
      "type": "function"
    },
    {
      "inputs": [],
      "name": "renounceOwnership",
      "outputs": [],
      "stateMutability": "nonpayable",
      "type": "function"
    },
    {
      "inputs": [
        {
          "internalType": "address",
          "name": "newOwner",
          "type": "address"
        }
      ],
      "name": "transferOwnership",
      "outputs": [],
      "stateMutability": "nonpayable",
      "type": "function"
    },
    {
      "inputs": [
        {
          "internalType": "address",
          "name": "_charityAddress",
          "type": "address"
        },
        {
          "internalType": "string",
          "name": "_name",
          "type": "string"
        },
        {
          "internalType": "string",
          "name": "_description",
          "type": "string"
        },
        {
          "internalType": "string",
          "name": "_website",
          "type": "string"
        },
        {
          "internalType": "string",
          "name": "_contactInformation",
          "type": "string"
        }
      ],
      "name": "updateCharityInfo",
      "outputs": [],
      "stateMutability": "nonpayable",
      "type": "function"
    },
    {
      "inputs": [
        {
          "internalType": "address",
          "name": "_charityAddress",
          "type": "address"
        },
        {
          "internalType": "enum CharityRegistry.CharityStatus",
          "name": "_newStatus",
          "type": "uint8"
        }
      ],
      "name": "updateCharityStatus",
      "outputs": [],
      "stateMutability": "nonpayable",
      "type": "function"
    }
  ],
  "bytecode": "0x608060405234801561001057600080fd5b5061001a3361001f565b61006f565b600080546001600160a01b038381166001600160a01b0319831681178455604051919092169283917f8be0079c531659141344cd1fd0a4f28419497f9722a3daafe3b4186f6b6457e09190a35050565b61135e8061007e6000396000f3fe608060405234801561001057600080fd5b50600436106100a95760003560e01c80638da5cb5b116100715780638da5cb5b146101345780639caf253f14610145578063b5bbd27914610168578063cec2d1931461017d578063df9ab98e14610190578063f2fde38b146101a357600080fd5b806303f744cb146100ae5780632478239a146100de578063715018a6146101045780637531ced81461010e5780637a3d860d14610121575b600080fd5b6100c16100bc366004610de9565b6101b6565b6040516001600160a01b0390911681526020015b60405180910390f35b6100f16100ec366004610e17565b6101e0565b6040516100d59796959493929190610eb9565b61010c61044c565b005b6100f161011c366004610e17565b610460565b61010c61012f366004610fd9565b610777565b6000546001600160a01b03166100c1565b610158610153366004610e17565b6109e3565b60405190151581526020016100d5565b610170610a25565b6040516100d5919061109b565b61010c61018b3660046110e8565b610a87565b61010c61019e36600461116c565b610bd3565b61010c6101b1366004610e17565b610cc6565b600281815481106101c657600080fd5b6000918252602090912001546001600160a01b0316905081565b6001602052600090815260409020805481906101fb906111a9565b80601f0160208091040260200160405190810160405280929190818152602001828054610227906111a9565b80156102745780601f1061024957610100808354040283529160200191610274565b820191906000526020600020905b81548152906001019060200180831161025757829003601f168201915b505050505090806001018054610289906111a9565b80601f01602080910402602001604051908101604052809291908181526020018280546102b5906111a9565b80156103025780601f106102d757610100808354040283529160200191610302565b820191906000526020600020905b8154815290600101906020018083116102e557829003601f168201915b505050506002830154600384015460048501805494956001600160a01b03841695600160a01b90940460ff169450919261033b906111a9565b80601f0160208091040260200160405190810160405280929190818152602001828054610367906111a9565b80156103b45780601f10610389576101008083540402835291602001916103b4565b820191906000526020600020905b81548152906001019060200180831161039757829003601f168201915b5050505050908060050180546103c9906111a9565b80601f01602080910402602001604051908101604052809291908181526020018280546103f5906111a9565b80156104425780601f1061041757610100808354040283529160200191610442565b820191906000526020600020905b81548152906001019060200180831161042557829003601f168201915b5050505050905087565b610454610d3f565b61045e6000610d99565b565b60608060008060006060806000600160008a6001600160a01b03166001600160a01b031681526020019081526020016000206040518060e00160405290816000820180546104ad906111a9565b80601f01602080910402602001604051908101604052809291908181526020018280546104d9906111a9565b80156105265780601f106104fb57610100808354040283529160200191610526565b820191906000526020600020905b81548152906001019060200180831161050957829003601f168201915b5050505050815260200160018201805461053f906111a9565b80601f016020809104026020016040519081016040528092919081815260200182805461056b906111a9565b80156105b85780601f1061058d576101008083540402835291602001916105b8565b820191906000526020600020905b81548152906001019060200180831161059b57829003601f168201915b505050918352505060028201546001600160a01b0381166020830152604090910190600160a01b900460ff1660038111156105f5576105f5610e81565b600381111561060657610606610e81565b815260200160038201548152602001600482018054610624906111a9565b80601f0160208091040260200160405190810160405280929190818152602001828054610650906111a9565b801561069d5780601f106106725761010080835404028352916020019161069d565b820191906000526020600020905b81548152906001019060200180831161068057829003601f168201915b505050505081526020016005820180546106b6906111a9565b80601f01602080910402602001604051908101604052809291908181526020018280546106e2906111a9565b801561072f5780601f106107045761010080835404028352916020019161072f565b820191906000526020600020905b81548152906001019060200180831161071257829003601f168201915b5050505050815250509050806000015181602001518260400151836060015184608001518560a001518660c00151975097509750975097509750975050919395979092949650565b6001600160a01b0383166107cb5760405162461bcd60e51b8152602060048201526016602482015275496e76616c69642077616c6c6574206164647265737360501b60448201526064015b60405180910390fd5b6001600160a01b038316600090815260016020526040902060030154156108345760405162461bcd60e51b815260206004820152601a60248201527f4368617269747920616c7265616479207265676973746572656400000000000060448201526064016107c2565b60006040518060e00160405280878152602001868152602001856001600160a01b031681526020016000600381111561086f5761086f610e81565b815242602080830191909152604080830187905260609092018590526001600160a01b03871660009081526001909152208151919250829181906108b39082611232565b50602082015160018201906108c89082611232565b5060408201516002820180546001600160a01b039092166001600160a01b03198316811782556060850151926001600160a81b03191617600160a01b83600381111561091657610916610e81565b02179055506080820151600382015560a082015160048201906109399082611232565b5060c0820151600582019061094e9082611232565b5050600280546001810182556000919091527f405787fa12a823e0f2b7631cc41b3ba8828b3321ca811111fa75cd3aa3bb5ace0180546001600160a01b0319166001600160a01b0387169081179091556040519091507f18114562ff6e2e1b2227e30eaba557e394cc6a5ed490fca627adeaee0d165934906109d390899042906112f2565b60405180910390a2505050505050565b600060016001600160a01b038316600090815260016020526040902060020154600160a01b900460ff166003811115610a1e57610a1e610e81565b1492915050565b60606002805480602002602001604051908101604052809291908181526020018280548015610a7d57602002820191906000526020600020905b81546001600160a01b03168152600190910190602001808311610a5f575b5050505050905090565b336001600160a01b0386161480610aa857506000546001600160a01b031633145b610ae35760405162461bcd60e51b815260206004820152600c60248201526b155b985d5d1a1bdc9a5e995960a21b60448201526064016107c2565b6001600160a01b0385166000908152600160205260408120600301549003610b465760405162461bcd60e51b815260206004820152601660248201527510da185c9a5d1e481b9bdd081c9959da5cdd195c995960521b60448201526064016107c2565b6001600160a01b038516600090815260016020526040902080610b698682611232565b5060018101610b788582611232565b5060048101610b878482611232565b5060058101610b968382611232565b506040516001600160a01b038716907f234054c002bb2cb99e6b0ae7083a91142f180ba18ded2b3e460db3f7e818821190600090a2505050505050565b610bdb610d3f565b6001600160a01b0382166000908152600160205260408120600301549003610c3e5760405162461bcd60e51b815260206004820152601660248201527510da185c9a5d1e481b9bdd081c9959da5cdd195c995960521b60448201526064016107c2565b6001600160a01b0382166000908152600160205260409020600201805482919060ff60a01b1916600160a01b836003811115610c7c57610c7c610e81565b0217905550816001600160a01b03167fe946a035e198da380c0e5d75358a87a85d4540f515587abb34af9537ae7b726b82604051610cba9190611314565b60405180910390a25050565b610cce610d3f565b6001600160a01b038116610d335760405162461bcd60e51b815260206004820152602660248201527f4f776e61626c653a206e6577206f776e657220697320746865207a65726f206160448201526564647265737360d01b60648201526084016107c2565b610d3c81610d99565b50565b6000546001600160a01b0316331461045e5760405162461bcd60e51b815260206004820181905260248201527f4f776e61626c653a2063616c6c6572206973206e6f7420746865206f776e657260448201526064016107c2565b600080546001600160a01b038381166001600160a01b0319831681178455604051919092169283917f8be0079c531659141344cd1fd0a4f28419497f9722a3daafe3b4186f6b6457e09190a35050565b600060208284031215610dfb57600080fd5b5035919050565b6001600160a01b0381168114610d3c57600080fd5b600060208284031215610e2957600080fd5b8135610e3481610e02565b9392505050565b6000815180845260005b81811015610e6157602081850181015186830182015201610e45565b506000602082860101526020601f19601f83011685010191505092915050565b634e487b7160e01b600052602160045260246000fd5b60048110610eb557634e487b7160e01b600052602160045260246000fd5b9052565b60e081526000610ecc60e083018a610e3b565b8281036020840152610ede818a610e3b565b6001600160a01b03891660408501529050610efc6060840188610e97565b85608084015282810360a0840152610f148186610e3b565b905082810360c0840152610f288185610e3b565b9a9950505050505050505050565b634e487b7160e01b600052604160045260246000fd5b600082601f830112610f5d57600080fd5b813567ffffffffffffffff80821115610f7857610f78610f36565b604051601f8301601f19908116603f01168101908282118183101715610fa057610fa0610f36565b81604052838152866020858801011115610fb957600080fd5b836020870160208301376000602085830101528094505050505092915050565b600080600080600060a08688031215610ff157600080fd5b853567ffffffffffffffff8082111561100957600080fd5b61101589838a01610f4c565b9650602088013591508082111561102b57600080fd5b61103789838a01610f4c565b95506040880135915061104982610e02565b9093506060870135908082111561105f57600080fd5b61106b89838a01610f4c565b9350608088013591508082111561108157600080fd5b5061108e88828901610f4c565b9150509295509295909350565b6020808252825182820181905260009190848201906040850190845b818110156110dc5783516001600160a01b0316835292840192918401916001016110b7565b50909695505050505050565b600080600080600060a0868803121561110057600080fd5b853561110b81610e02565b9450602086013567ffffffffffffffff8082111561112857600080fd5b61113489838a01610f4c565b9550604088013591508082111561114a57600080fd5b61115689838a01610f4c565b9450606088013591508082111561105f57600080fd5b6000806040838503121561117f57600080fd5b823561118a81610e02565b915060208301356004811061119e57600080fd5b809150509250929050565b600181811c908216806111bd57607f821691505b6020821081036111dd57634e487b7160e01b600052602260045260246000fd5b50919050565b601f82111561122d57600081815260208120601f850160051c8101602086101561120a5750805b601f850160051c820191505b8181101561122957828155600101611216565b5050505b505050565b815167ffffffffffffffff81111561124c5761124c610f36565b6112608161125a84546111a9565b846111e3565b602080601f831160018114611295576000841561127d5750858301515b600019600386901b1c1916600185901b178555611229565b600085815260208120601f198616915b828110156112c4578886015182559484019460019091019084016112a5565b50858210156112e25787850151600019600388901b60f8161c191681555b5050505050600190811b01905550565b6040815260006113056040830185610e3b565b90508260208301529392505050565b602081016113228284610e97565b9291505056fea264697066735822122072830a7df394664259874d286c62fa93d093332c1cdd1d8d972f6e375f92236064736f6c63430008110033",
  "linkReferences": {},
  "deployedLinkReferences": {}
}